8=FIX.4.4|9=142|35=W|34=0|49=XXX|52=20180206-21:43:36.000|56=user|262=TEST|55=EURUSD|268=2|269=0|270=1.31678|271=100000.0|269=1|270=1.31667|271=100000.0|10=057|8=FIX.4.4|9=142|35=W|34=1|49=justtech|52=20180206-21:43:36.020|56=user|262=TEST|55=EURNOK|268=2|269=0|270=1.75635|271=100000.0|269=1|270=1.75633|271=100000.0|10=058|8=FIX.4.4|9=141|35=W|34=2|49=justtech|52=20180206-21:43:36.021|56=user|262=TEST|55=EURUSD|268=2|269=0|270=1.31677|271=100000.0|269=1|270=1.3167|271=100000.0|10=006|8=FIX.4.4|9=142|35=W|34=3|49=justtech|52=20180206-21:43:36.021|56=user|262=TEST|55=EURNOK|268=2|269=0|270=1.75637|271=100000.0|269=1|270=1.75636|271=100000.0|10=066|8=FIX.4.4|9=142|35=W|34=4|49=justtech|52=20180206-21:43:36.021|56=user|262=TEST|55=EURUSD|268=2|269=0|270=1.31683|271=100000.0|269=1|270=1.31674|271=100000.0|10=058|8=FIX.4.4|9=142|35=W|34=5|49=justtech|52=20180206-21:43:36.021|56=user|262=TEST|55=EURUSD|268=2|269=0|270=1.31674|271=100000.0|269=1|270=1.31677|271=100000.0|10=062|8=FIX.4.4|9=142|35=W|34=6|49=justtech|52=20180206-21:43:36.021|56=user|262=TEST|55=USDJPY|268=2|269=0|270=1.82783|271=100000.0|269=1|270=1.82777|271=100000.0|10=084|8=FIX.4.4|9=142|35=W|34=7|49=justtech|52=20180206-21:43:36.022|56=user|262=TEST|55=EURNOK|268=2|269=0|270=1.75639|271=100000.0|269=1|270=1.75634|271=100000.0|10=071|8=FIX.4.4|9=142|35=W|34=8|49=justtech|52=20180206-21:43:36.022|56=user|262=TEST|55=EURNOK|268=2|269=0|270=1.75634|271=100000.0|269=1|270=1.75635|271=100000.0|10=068|8=FIX.4.4|9=141|35=W|34=9|49=justtech|52=20180206-21:43:36.022|56=user|262=TEST|55=USDJPY|268=2|269=0|270=1.8279|271=100000.0|269=1|270=1.82782|271=100000.0|10=033|